{
  "address": "0x9fB5823006B53BfB3E315A20AC269EF1Fa60F5f5",
  "abi": [
    {
      "anonymous": false,
      "inputs": [
        {
          "indexed": true,
          "internalType": "address",
          "name": "previousOwner",
          "type": "address"
        },
        {
          "indexed": true,
          "internalType": "address",
          "name": "newOwner",
          "type": "address"
        }
      ],
      "name": "OwnershipTransferred",
      "type": "event"
    },
    {
      "anonymous": false,
      "inputs": [
        {
          "indexed": false,
          "internalType": "address",
          "name": "agreement",
          "type": "address"
        }
      ],
      "name": "agreementCreated",
      "type": "event"
    },
    {
      "inputs": [
        {
          "internalType": "string",
          "name": "name",
          "type": "string"
        },
        {
          "internalType": "string",
          "name": "cid",
          "type": "string"
        },
        {
          "internalType": "string",
          "name": "status",
          "type": "string"
        }
      ],
      "name": "createAgreement",
      "outputs": [
        {
          "internalType": "address",
          "name": "",
          "type": "address"
        }
      ],
      "stateMutability": "nonpayable",
      "type": "function"
    },
    {
      "inputs": [
        {
          "internalType": "address",
          "name": "userAddress",
          "type": "address"
        }
      ],
      "name": "getAgrrements",
      "outputs": [
        {
          "internalType": "address[]",
          "name": "",
          "type": "address[]"
        }
      ],
      "stateMutability": "view",
      "type": "function"
    },
    {
      "inputs": [],
      "name": "owner",
      "outputs": [
        {
          "internalType": "address",
          "name": "",
          "type": "address"
        }
      ],
      "stateMutability": "view",
      "type": "function"
    },
    {
      "inputs": [],
      "name": "renounceOwnership",
      "outputs": [],
      "stateMutability": "nonpayable",
      "type": "function"
    },
    {
      "inputs": [
        {
          "internalType": "address",
          "name": "newOwner",
          "type": "address"
        }
      ],
      "name": "transferOwnership",
      "outputs": [],
      "stateMutability": "nonpayable",
      "type": "function"
    }
  ],
  "transactionHash": "0x268c27c6566aedf6042c4c92db1d44469b84a92e2deff0e1ded4e2c6d14894d8",
  "args": [],
  "numDeployments": 1,
  "solcInputHash": "849e23dc66997f6cfa9409d8641c6775",
  "bytecode": "0x608060405234801561001057600080fd5b5061002d61002261003260201b60201c565b61003a60201b60201c565b6100fe565b600033905090565b60008060009054906101000a900473ffffffffffffffffffffffffffffffffffffffff169050816000806101000a81548173ffffffffffffffffffffffffffffffffffffffff021916908373ffffffffffffffffffffffffffffffffffffffff1602179055508173ffffffffffffffffffffffffffffffffffffffff168173ffffffffffffffffffffffffffffffffffffffff167f8be0079c531659141344cd1fd0a4f28419497f9722a3daafe3b4186f6b6457e060405160405180910390a35050565b61253d8061010d6000396000f3fe60806040523480156200001157600080fd5b50600436106200005e5760003560e01c80632de333ed14620000635780633c02634e1462000099578063715018a614620000cf5780638da5cb5b14620000db578063f2fde38b14620000fd575b600080fd5b6200008160048036038101906200007b9190620005c8565b6200011d565b604051620000909190620007e7565b60405180910390f35b620000b76004803603810190620000b19190620005f4565b620001ec565b604051620000c69190620007ca565b60405180910390f35b620000d962000314565b005b620000e56200032c565b604051620000f49190620007ca565b60405180910390f35b6200011b6004803603810190620001159190620005c8565b62000355565b005b6060600160008373ffffffffffffffffffffffffffffffffffffffff1673ffffffffffffffffffffffffffffffffffffffff168152602001908152602001600020805480602002602001604051908101604052809291908181526020018280548015620001e057602002820191906000526020600020905b8160009054906101000a900473ffffffffffffffffffffffffffffffffffffffff1673ffffffffffffffffffffffffffffffffffffffff168152602001906001019080831162000195575b50505050509050919050565b60008084843385604051620002019062000531565b6200021094939291906200080b565b604051809103906000f0801580156200022d573d6000803e3d6000fd5b509050600160003373ffffffffffffffffffffffffffffffffffffffff1673ffffffffffffffffffffffffffffffffffffffff168152602001908152602001600020819080600181540180825580915050600190039060005260206000200160009091909190916101000a81548173ffffffffffffffffffffffffffffffffffffffff021916908373ffffffffffffffffffffffffffffffffffffffff1602179055507fc198bc12e1e578171c6d418ea57e66e7da901e80b2dc144ac43a334d6b0c145f81604051620003019190620007ca565b60405180910390a1809150509392505050565b6200031e620003e0565b6200032a600062000465565b565b60008060009054906101000a900473ffffffffffffffffffffffffffffffffffffffff16905090565b6200035f620003e0565b600073ffffffffffffffffffffffffffffffffffffffff168173ffffffffffffffffffffffffffffffffffffffff161415620003d2576040517f08c379a0000000000000000000000000000000000000000000000000000000008152600401620003c9906200086d565b60405180910390fd5b620003dd8162000465565b50565b620003ea62000529565b73ffffffffffffffffffffffffffffffffffffffff166200040a6200032c565b73ffffffffffffffffffffffffffffffffffffffff161462000463576040517f08c379a00000000000000000000000000000000000000000000000000000000081526004016200045a906200088f565b60405180910390fd5b565b60008060009054906101000a900473ffffffffffffffffffffffffffffffffffffffff169050816000806101000a81548173ffffffffffffffffffffffffffffffffffffffff021916908373ffffffffffffffffffffffffffffffffffffffff1602179055508173ffffffffffffffffffffffffffffffffffffffff168173ffffffffffffffffffffffffffffffffffffffff167f8be0079c531659141344cd1fd0a4f28419497f9722a3daafe3b4186f6b6457e060405160405180910390a35050565b600033905090565b611a218062000ae783390190565b6000620005566200055084620008da565b620008b1565b9050828152602081018484840111156200056f57600080fd5b6200057c84828562000999565b509392505050565b600081359050620005958162000acc565b92915050565b600082601f830112620005ad57600080fd5b8135620005bf8482602086016200053f565b91505092915050565b600060208284031215620005db57600080fd5b6000620005eb8482850162000584565b91505092915050565b6000806000606084860312156200060a57600080fd5b600084013567ffffffffffffffff8111156200062557600080fd5b62000633868287016200059b565b935050602084013567ffffffffffffffff8111156200065157600080fd5b6200065f868287016200059b565b925050604084013567ffffffffffffffff8111156200067d57600080fd5b6200068b868287016200059b565b9150509250925092565b6000620006a38383620006af565b60208301905092915050565b620006ba8162000965565b82525050565b620006cb8162000965565b82525050565b6000620006de8262000920565b620006ea818562000943565b9350620006f78362000910565b8060005b838110156200072e57815162000712888262000695565b97506200071f8362000936565b925050600181019050620006fb565b5085935050505092915050565b600062000748826200092b565b62000754818562000954565b935062000766818560208601620009a8565b620007718162000a43565b840191505092915050565b60006200078b60268362000954565b9150620007988262000a54565b604082019050919050565b6000620007b260208362000954565b9150620007bf8262000aa3565b602082019050919050565b6000602082019050620007e16000830184620006c0565b92915050565b60006020820190508181036000830152620008038184620006d1565b905092915050565b600060808201905081810360008301526200082781876200073b565b905081810360208301526200083d81866200073b565b90506200084e6040830185620006c0565b81810360608301526200086281846200073b565b905095945050505050565b6000602082019050818103600083015262000888816200077c565b9050919050565b60006020820190508181036000830152620008aa81620007a3565b9050919050565b6000620008bd620008d0565b9050620008cb8282620009de565b919050565b6000604051905090565b600067ffffffffffffffff821115620008f857620008f762000a14565b5b620009038262000a43565b9050602081019050919050565b6000819050602082019050919050565b600081519050919050565b600081519050919050565b6000602082019050919050565b600082825260208201905092915050565b600082825260208201905092915050565b6000620009728262000979565b9050919050565b600073ffffffffffffffffffffffffffffffffffffffff82169050919050565b82818337600083830152505050565b60005b83811015620009c8578082015181840152602081019050620009ab565b83811115620009d8576000848401525b50505050565b620009e98262000a43565b810181811067ffffffffffffffff8211171562000a0b5762000a0a62000a14565b5b80604052505050565b7f4e487b7100000000000000000000000000000000000000000000000000000000600052604160045260246000fd5b6000601f19601f8301169050919050565b7f4f776e61626c653a206e6577206f776e657220697320746865207a65726f206160008201527f6464726573730000000000000000000000000000000000000000000000000000602082015250565b7f4f776e61626c653a2063616c6c6572206973206e6f7420746865206f776e6572600082015250565b62000ad78162000965565b811462000ae357600080fd5b5056fe60806040523480156200001157600080fd5b5060405162001a2138038062001a218339818101604052810190620000379190620002f2565b620000576200004b620000ed60201b60201c565b620000f560201b60201c565b83600190805190602001906200006f929190620001b9565b50826002908051906020019062000088929190620001b9565b5081600360006101000a81548173ffffffffffffffffffffffffffffffffffffffff021916908373ffffffffffffffffffffffffffffffffffffffff1602179055508060049080519060200190620000e2929190620001b9565b505050505062000567565b600033905090565b60008060009054906101000a900473ffffffffffffffffffffffffffffffffffffffff169050816000806101000a81548173ffffffffffffffffffffffffffffffffffffffff021916908373ffffffffffffffffffffffffffffffffffffffff1602179055508173ffffffffffffffffffffffffffffffffffffffff168173ffffffffffffffffffffffffffffffffffffffff167f8be0079c531659141344cd1fd0a4f28419497f9722a3daafe3b4186f6b6457e060405160405180910390a35050565b828054620001c79062000472565b90600052602060002090601f016020900481019282620001eb576000855562000237565b82601f106200020657805160ff191683800117855562000237565b8280016001018555821562000237579182015b828111156200023657825182559160200191906001019062000219565b5b5090506200024691906200024a565b5090565b5b80821115620002655760008160009055506001016200024b565b5090565b6000620002806200027a84620003d2565b620003a9565b9050828152602081018484840111156200029957600080fd5b620002a68482856200043c565b509392505050565b600081519050620002bf816200054d565b92915050565b600082601f830112620002d757600080fd5b8151620002e984826020860162000269565b91505092915050565b600080600080608085870312156200030957600080fd5b600085015167ffffffffffffffff8111156200032457600080fd5b6200033287828801620002c5565b945050602085015167ffffffffffffffff8111156200035057600080fd5b6200035e87828801620002c5565b93505060406200037187828801620002ae565b925050606085015167ffffffffffffffff8111156200038f57600080fd5b6200039d87828801620002c5565b91505092959194509250565b6000620003b5620003c8565b9050620003c38282620004a8565b919050565b6000604051905090565b600067ffffffffffffffff821115620003f057620003ef6200050d565b5b620003fb826200053c565b9050602081019050919050565b600062000415826200041c565b9050919050565b600073ffffffffffffffffffffffffffffffffffffffff82169050919050565b60005b838110156200045c5780820151818401526020810190506200043f565b838111156200046c576000848401525b50505050565b600060028204905060018216806200048b57607f821691505b60208210811415620004a257620004a1620004de565b5b50919050565b620004b3826200053c565b810181811067ffffffffffffffff82111715620004d557620004d46200050d565b5b80604052505050565b7f4e487b7100000000000000000000000000000000000000000000000000000000600052602260045260246000fd5b7f4e487b7100000000000000000000000000000000000000000000000000000000600052604160045260246000fd5b6000601f19601f8301169050919050565b620005588162000408565b81146200056457600080fd5b50565b6114aa80620005776000396000f3fe608060405234801561001057600080fd5b50600436106100cf5760003560e01c80639eab52531161008c578063ca00c70211610066578063ca00c702146101ee578063ce0fabd81461020c578063db8ddcc91461022a578063f2fde38b14610246576100cf565b80639eab525314610184578063aaf2e5d8146101a2578063b7e03bec146101d2576100cf565b80630555ff41146100d457806317d7de7c146101045780636f4d469b14610122578063715018a61461013e578063893d20e8146101485780638da5cb5b14610166575b600080fd5b6100ee60048036038101906100e99190610ccd565b610262565b6040516100fb9190610f40565b60405180910390f35b61010c610282565b6040516101199190610f5b565b60405180910390f35b61013c60048036038101906101379190610cf6565b610314565b005b610146610502565b005b610150610516565b60405161015d9190610f03565b60405180910390f35b61016e610540565b60405161017b9190610f03565b60405180910390f35b61018c610569565b6040516101999190610f1e565b60405180910390f35b6101bc60048036038101906101b79190610ccd565b6105f7565b6040516101c99190610f40565b60405180910390f35b6101ec60048036038101906101e79190610d37565b6106c8565b005b6101f66106e2565b6040516102039190610f5b565b60405180910390f35b610214610774565b6040516102219190610f5b565b60405180910390f35b610244600480360381019061023f9190610ccd565b6107fe565b005b610260600480360381019061025b9190610ccd565b610949565b005b60056020528060005260406000206000915054906101000a900460ff1681565b606060018054610291906111d4565b80601f01602080910402602001604051908101604052809291908181526020018280546102bd906111d4565b801561030a5780601f106102df5761010080835404028352916020019161030a565b820191906000526020600020905b8154815290600101906020018083116102ed57829003601f168201915b5050505050905090565b600360009054906101000a900473ffffffffffffffffffffffffffffffffffffffff1673ffffffffffffffffffffffffffffffffffffffff163373ffffffffffffffffffffffffffffffffffffffff16146103a4576040517f08c379a000000000000000000000000000000000000000000000000000000000815260040161039b90610f9d565b60405180910390fd5b60005b81518110156104fe576000600560008484815181106103ef577f4e487b7100000000000000000000000000000000000000000000000000000000600052603260045260246000fd5b602002602001015173ffffffffffffffffffffffffffffffffffffffff1673ffffffffffffffffffffffffffffffffffffffff16815260200190815260200160002060006101000a81548160ff0219169083151502179055506006828281518110610483577f4e487b7100000000000000000000000000000000000000000000000000000000600052603260045260246000fd5b60200260200101519080600181540180825580915050600190039060005260206000200160009091909190916101000a81548173ffffffffffffffffffffffffffffffffffffffff021916908373ffffffffffffffffffffffffffffffffffffffff16021790555080806104f690611237565b9150506103a7565b5050565b61050a6109cd565b6105146000610a4b565b565b6000600360009054906101000a900473ffffffffffffffffffffffffffffffffffffffff16905090565b60008060009054906101000a900473ffffffffffffffffffffffffffffffffffffffff16905090565b606060068054806020026020016040519081016040528092919081815260200182805480156105ed57602002820191906000526020600020905b8160009054906101000a900473ffffffffffffffffffffffffffffffffffffffff1673ffffffffffffffffffffffffffffffffffffffff16815260200190600101908083116105a3575b5050505050905090565b6000806000905060005b6006805490508110156106be578373ffffffffffffffffffffffffffffffffffffffff166006828154811061065f577f4e487b7100000000000000000000000000000000000000000000000000000000600052603260045260246000fd5b9060005260206000200160009054906101000a900473ffffffffffffffffffffffffffffffffffffffff1673ffffffffffffffffffffffffffffffffffffffff1614156106ab57600191505b80806106b690611237565b915050610601565b5080915050919050565b80600290805190602001906106de929190610b17565b5050565b6060600280546106f1906111d4565b80601f016020809104026020016040519081016040528092919081815260200182805461071d906111d4565b801561076a5780601f1061073f5761010080835404028352916020019161076a565b820191906000526020600020905b81548152906001019060200180831161074d57829003601f168201915b5050505050905090565b606060068054905060075414156107c2576040518060400160405280600681526020017f5369676e6564000000000000000000000000000000000000000000000000000081525090506107fb565b6040518060400160405280600881526020017f556e7369676e656400000000000000000000000000000000000000000000000081525090505b90565b6000610809826105f7565b90508061084b576040517f08c379a000000000000000000000000000000000000000000000000000000000815260040161084290610fbd565b60405180910390fd5b600560008373ffffffffffffffffffffffffffffffffffffffff1673ffffffffffffffffffffffffffffffffffffffff16815260200190815260200160002060009054906101000a900460ff16156108d8576040517f08c379a00000000000000000000000000000000000000000000000000000000081526004016108cf90610ffd565b60405180910390fd5b6001600560008473ffffffffffffffffffffffffffffffffffffffff1673ffffffffffffffffffffffffffffffffffffffff16815260200190815260200160002060006101000a81548160ff021916908315150217905550600160075461093f91906110f4565b6007819055505050565b6109516109cd565b600073ffffffffffffffffffffffffffffffffffffffff168173ffffffffffffffffffffffffffffffffffffffff1614156109c1576040517f08c379a00000000000000000000000000000000000000000000000000000000081526004016109b890610f7d565b60405180910390fd5b6109ca81610a4b565b50565b6109d5610b0f565b73ffffffffffffffffffffffffffffffffffffffff166109f3610540565b73ffffffffffffffffffffffffffffffffffffffff1614610a49576040517f08c379a0000000000000000000000000000000000000000000000000000000008152600401610a4090610fdd565b60405180910390fd5b565b60008060009054906101000a900473ffffffffffffffffffffffffffffffffffffffff169050816000806101000a81548173ffffffffffffffffffffffffffffffffffffffff021916908373ffffffffffffffffffffffffffffffffffffffff1602179055508173ffffffffffffffffffffffffffffffffffffffff168173ffffffffffffffffffffffffffffffffffffffff167f8be0079c531659141344cd1fd0a4f28419497f9722a3daafe3b4186f6b6457e060405160405180910390a35050565b600033905090565b828054610b23906111d4565b90600052602060002090601f016020900481019282610b455760008555610b8c565b82601f10610b5e57805160ff1916838001178555610b8c565b82800160010185558215610b8c579182015b82811115610b8b578251825591602001919060010190610b70565b5b509050610b999190610b9d565b5090565b5b80821115610bb6576000816000905550600101610b9e565b5090565b6000610bcd610bc884611042565b61101d565b90508083825260208201905082856020860282011115610bec57600080fd5b60005b85811015610c1c5781610c028882610c64565b845260208401935060208301925050600181019050610bef565b5050509392505050565b6000610c39610c348461106e565b61101d565b905082815260208101848484011115610c5157600080fd5b610c5c848285611192565b509392505050565b600081359050610c738161145d565b92915050565b600082601f830112610c8a57600080fd5b8135610c9a848260208601610bba565b91505092915050565b600082601f830112610cb457600080fd5b8135610cc4848260208601610c26565b91505092915050565b600060208284031215610cdf57600080fd5b6000610ced84828501610c64565b91505092915050565b600060208284031215610d0857600080fd5b600082013567ffffffffffffffff811115610d2257600080fd5b610d2e84828501610c79565b91505092915050565b600060208284031215610d4957600080fd5b600082013567ffffffffffffffff811115610d6357600080fd5b610d6f84828501610ca3565b91505092915050565b6000610d848383610d90565b60208301905092915050565b610d998161114a565b82525050565b610da88161114a565b82525050565b6000610db9826110af565b610dc381856110d2565b9350610dce8361109f565b8060005b83811015610dff578151610de68882610d78565b9750610df1836110c5565b925050600181019050610dd2565b5085935050505092915050565b610e158161115c565b82525050565b6000610e26826110ba565b610e3081856110e3565b9350610e408185602086016111a1565b610e498161130d565b840191505092915050565b6000610e616026836110e3565b9150610e6c8261131e565b604082019050919050565b6000610e84601a836110e3565b9150610e8f8261136d565b602082019050919050565b6000610ea76024836110e3565b9150610eb282611396565b604082019050919050565b6000610eca6020836110e3565b9150610ed5826113e5565b602082019050919050565b6000610eed6021836110e3565b9150610ef88261140e565b604082019050919050565b6000602082019050610f186000830184610d9f565b92915050565b60006020820190508181036000830152610f388184610dae565b905092915050565b6000602082019050610f556000830184610e0c565b92915050565b60006020820190508181036000830152610f758184610e1b565b905092915050565b60006020820190508181036000830152610f9681610e54565b9050919050565b60006020820190508181036000830152610fb681610e77565b9050919050565b60006020820190508181036000830152610fd681610e9a565b9050919050565b60006020820190508181036000830152610ff681610ebd565b9050919050565b6000602082019050818103600083015261101681610ee0565b9050919050565b6000611027611038565b90506110338282611206565b919050565b6000604051905090565b600067ffffffffffffffff82111561105d5761105c6112de565b5b602082029050602081019050919050565b600067ffffffffffffffff821115611089576110886112de565b5b6110928261130d565b9050602081019050919050565b6000819050602082019050919050565b600081519050919050565b600081519050919050565b6000602082019050919050565b600082825260208201905092915050565b600082825260208201905092915050565b60006110ff82611188565b915061110a83611188565b9250827fffffffffffffffffffffffffffffffffffffffffffffffffffffffffffffffff0382111561113f5761113e611280565b5b828201905092915050565b600061115582611168565b9050919050565b60008115159050919050565b600073ffffffffffffffffffffffffffffffffffffffff82169050919050565b6000819050919050565b82818337600083830152505050565b60005b838110156111bf5780820151818401526020810190506111a4565b838111156111ce576000848401525b50505050565b600060028204905060018216806111ec57607f821691505b60208210811415611200576111ff6112af565b5b50919050565b61120f8261130d565b810181811067ffffffffffffffff8211171561122e5761122d6112de565b5b80604052505050565b600061124282611188565b91507fffffffffffffffffffffffffffffffffffffffffffffffffffffffffffffffff82141561127557611274611280565b5b600182019050919050565b7f4e487b7100000000000000000000000000000000000000000000000000000000600052601160045260246000fd5b7f4e487b7100000000000000000000000000000000000000000000000000000000600052602260045260246000fd5b7f4e487b7100000000000000000000000000000000000000000000000000000000600052604160045260246000fd5b6000601f19601f8301169050919050565b7f4f776e61626c653a206e6577206f776e657220697320746865207a65726f206160008201527f6464726573730000000000000000000000000000000000000000000000000000602082015250565b7f4f6e6c79206f776e65722063616e20616464206d656d62657273000000000000600082015250565b7f596f7520617265206e6f74206d656d626572206f66207468697320616772656560008201527f6d656e7400000000000000000000000000000000000000000000000000000000602082015250565b7f4f776e61626c653a2063616c6c6572206973206e6f7420746865206f776e6572600082015250565b7f596f75206861766520616c7265616479207369676e65642061677265656d656e60008201527f7400000000000000000000000000000000000000000000000000000000000000602082015250565b6114668161114a565b811461147157600080fd5b5056fea2646970667358221220a3f7da26c804186ee83a48cf5ab2da82db7732599b27ab18cbf6232747a9e4c464736f6c63430008040033a26469706673582212200c3a43ab1a0bf923f19c879cdfa1878d23ed887b7e00383abe9ebc205da7abe664736f6c63430008040033",
  "devdoc": {
    "kind": "dev",
    "methods": {
      "owner()": {
        "details": "Returns the address of the current owner."
      },
      "renounceOwnership()": {
        "details": "Leaves the contract without owner. It will not be possible to call `onlyOwner` functions anymore. Can only be called by the current owner. NOTE: Renouncing ownership will leave the contract without an owner, thereby removing any functionality that is only available to the owner."
      },
      "transferOwnership(address)": {
        "details": "Transfers ownership of the contract to a new account (`newOwner`). Can only be called by the current owner."
      }
    },
    "version": 1
  },
  "userdoc": {
    "kind": "user",
    "methods": {},
    "version": 1
  },
  "storageLayout": {
    "storage": [
      {
        "astId": 7,
        "contract": "contracts/CrypticAgreementFactory.sol:CrypticAgreementFactory",
        "label": "_owner",
        "offset": 0,
        "slot": "0",
        "type": "t_address"
      },
      {
        "astId": 2019,
        "contract": "contracts/CrypticAgreementFactory.sol:CrypticAgreementFactory",
        "label": "agreemets",
        "offset": 0,
        "slot": "1",
        "type": "t_mapping(t_address,t_array(t_address)dyn_storage)"
      }
    ],
    "types": {
      "t_address": {
        "encoding": "inplace",
        "label": "address",
        "numberOfBytes": "20"
      },
      "t_array(t_address)dyn_storage": {
        "base": "t_address",
        "encoding": "dynamic_array",
        "label": "address[]",
        "numberOfBytes": "32"
      },
      "t_mapping(t_address,t_array(t_address)dyn_storage)": {
        "encoding": "mapping",
        "key": "t_address",
        "label": "mapping(address => address[])",
        "numberOfBytes": "32",
        "value": "t_array(t_address)dyn_storage"
      }
    }
  }
}