{
  "_format": "hh-sol-artifact-1",
  "contractName": "CrypticAgreementFactory",
  "sourceName": "contracts/CrypticAgreementFactory.sol",
  "abi": [
    {
      "anonymous": false,
      "inputs": [
        {
          "indexed": true,
          "internalType": "address",
          "name": "previousOwner",
          "type": "address"
        },
        {
          "indexed": true,
          "internalType": "address",
          "name": "newOwner",
          "type": "address"
        }
      ],
      "name": "OwnershipTransferred",
      "type": "event"
    },
    {
      "anonymous": false,
      "inputs": [
        {
          "indexed": false,
          "internalType": "address",
          "name": "agreement",
          "type": "address"
        }
      ],
      "name": "agreementCreated",
      "type": "event"
    },
    {
      "inputs": [
        {
          "internalType": "string",
          "name": "name",
          "type": "string"
        },
        {
          "internalType": "string",
          "name": "cid",
          "type": "string"
        },
        {
          "internalType": "string",
          "name": "status",
          "type": "string"
        }
      ],
      "name": "createAgreement",
      "outputs": [
        {
          "internalType": "address",
          "name": "",
          "type": "address"
        }
      ],
      "stateMutability": "nonpayable",
      "type": "function"
    },
    {
      "inputs": [
        {
          "internalType": "address",
          "name": "userAddress",
          "type": "address"
        }
      ],
      "name": "getAgrrements",
      "outputs": [
        {
          "internalType": "address[]",
          "name": "",
          "type": "address[]"
        }
      ],
      "stateMutability": "view",
      "type": "function"
    },
    {
      "inputs": [],
      "name": "owner",
      "outputs": [
        {
          "internalType": "address",
          "name": "",
          "type": "address"
        }
      ],
      "stateMutability": "view",
      "type": "function"
    },
    {
      "inputs": [],
      "name": "renounceOwnership",
      "outputs": [],
      "stateMutability": "nonpayable",
      "type": "function"
    },
    {
      "inputs": [
        {
          "internalType": "address",
          "name": "newOwner",
          "type": "address"
        }
      ],
      "name": "transferOwnership",
      "outputs": [],
      "stateMutability": "nonpayable",
      "type": "function"
    }
  ],
  "bytecode": "0x608060405234801561001057600080fd5b5061002d61002261003260201b60201c565b61003a60201b60201c565b6100fe565b600033905090565b60008060009054906101000a900473ffffffffffffffffffffffffffffffffffffffff169050816000806101000a81548173ffffffffffffffffffffffffffffffffffffffff021916908373ffffffffffffffffffffffffffffffffffffffff1602179055508173ffffffffffffffffffffffffffffffffffffffff168173ffffffffffffffffffffffffffffffffffffffff167f8be0079c531659141344cd1fd0a4f28419497f9722a3daafe3b4186f6b6457e060405160405180910390a35050565b6123ca8061010d6000396000f3fe60806040523480156200001157600080fd5b50600436106200005e5760003560e01c80632de333ed14620000635780633c02634e1462000099578063715018a614620000cf5780638da5cb5b14620000db578063f2fde38b14620000fd575b600080fd5b6200008160048036038101906200007b9190620005ac565b6200011d565b604051620000909190620007ca565b60405180910390f35b620000b76004803603810190620000b19190620005d8565b620001ec565b604051620000c69190620007ad565b60405180910390f35b620000d96200031d565b005b620000e562000335565b604051620000f49190620007ad565b60405180910390f35b6200011b6004803603810190620001159190620005ac565b6200035e565b005b6060600160008373ffffffffffffffffffffffffffffffffffffffff1673ffffffffffffffffffffffffffffffffffffffff168152602001908152602001600020805480602002602001604051908101604052809291908181526020018280548015620001e057602002820191906000526020600020905b8160009054906101000a900473ffffffffffffffffffffffffffffffffffffffff1673ffffffffffffffffffffffffffffffffffffffff168152602001906001019080831162000195575b50505050509050919050565b6000808787878733888860405162000204906200053a565b620002169796959493929190620007ee565b604051809103906000f08015801562000233573d6000803e3d6000fd5b509050600160003373ffffffffffffffffffffffffffffffffffffffff1673ffffffffffffffffffffffffffffffffffffffff168152602001908152602001600020819080600181540180825580915050600190039060005260206000200160009091909190916101000a81548173ffffffffffffffffffffffffffffffffffffffff021916908373ffffffffffffffffffffffffffffffffffffffff1602179055507fc198bc12e1e578171c6d418ea57e66e7da901e80b2dc144ac43a334d6b0c145f81604051620003079190620007ad565b60405180910390a1809150509695505050505050565b62000327620003e9565b6200033360006200046e565b565b60008060009054906101000a900473ffffffffffffffffffffffffffffffffffffffff16905090565b62000368620003e9565b600073ffffffffffffffffffffffffffffffffffffffff168173ffffffffffffffffffffffffffffffffffffffff161415620003db576040517f08c379a0000000000000000000000000000000000000000000000000000000008152600401620003d29062000856565b60405180910390fd5b620003e6816200046e565b50565b620003f362000532565b73ffffffffffffffffffffffffffffffffffffffff166200041362000335565b73ffffffffffffffffffffffffffffffffffffffff16146200046c576040517f08c379a0000000000000000000000000000000000000000000000000000000008152600401620004639062000878565b60405180910390fd5b565b60008060009054906101000a900473ffffffffffffffffffffffffffffffffffffffff169050816000806101000a81548173ffffffffffffffffffffffffffffffffffffffff021916908373ffffffffffffffffffffffffffffffffffffffff1602179055508173ffffffffffffffffffffffffffffffffffffffff168173ffffffffffffffffffffffffffffffffffffffff167f8be0079c531659141344cd1fd0a4f28419497f9722a3daafe3b4186f6b6457e060405160405180910390a35050565b600033905090565b6119ca80620009cb83390190565b6000813590506200055981620009b0565b92915050565b60008083601f8401126200057257600080fd5b8235905067ffffffffffffffff8111156200058c57600080fd5b602083019150836001820283011115620005a557600080fd5b9250929050565b600060208284031215620005bf57600080fd5b6000620005cf8482850162000548565b91505092915050565b60008060008060008060608789031215620005f257600080fd5b600087013567ffffffffffffffff8111156200060d57600080fd5b6200061b89828a016200055f565b9650965050602087013567ffffffffffffffff8111156200063b57600080fd5b6200064989828a016200055f565b9450945050604087013567ffffffffffffffff8111156200066957600080fd5b6200067789828a016200055f565b92509250509295509295509295565b6000620006948383620006a0565b60208301905092915050565b620006ab81620008e4565b82525050565b620006bc81620008e4565b82525050565b6000620006cf82620008aa565b620006db8185620008c2565b9350620006e8836200089a565b8060005b838110156200071f57815162000703888262000686565b97506200071083620008b5565b925050600181019050620006ec565b5085935050505092915050565b60006200073a8385620008d3565b93506200074983858462000918565b620007548362000927565b840190509392505050565b60006200076e602683620008d3565b91506200077b8262000938565b604082019050919050565b600062000795602083620008d3565b9150620007a28262000987565b602082019050919050565b6000602082019050620007c46000830184620006b1565b92915050565b60006020820190508181036000830152620007e68184620006c2565b905092915050565b600060808201905081810360008301526200080b81898b6200072c565b90508181036020830152620008228187896200072c565b9050620008336040830186620006b1565b8181036060830152620008488184866200072c565b905098975050505050505050565b6000602082019050818103600083015262000871816200075f565b9050919050565b60006020820190508181036000830152620008938162000786565b9050919050565b6000819050602082019050919050565b600081519050919050565b6000602082019050919050565b600082825260208201905092915050565b600082825260208201905092915050565b6000620008f182620008f8565b9050919050565b600073ffffffffffffffffffffffffffffffffffffffff82169050919050565b82818337600083830152505050565b6000601f19601f8301169050919050565b7f4f776e61626c653a206e6577206f776e657220697320746865207a65726f206160008201527f6464726573730000000000000000000000000000000000000000000000000000602082015250565b7f4f776e61626c653a2063616c6c6572206973206e6f7420746865206f776e6572600082015250565b620009bb81620008e4565b8114620009c757600080fd5b5056fe60806040523480156200001157600080fd5b50604051620019ca380380620019ca8339818101604052810190620000379190620002f2565b620000576200004b620000ed60201b60201c565b620000f560201b60201c565b83600190805190602001906200006f929190620001b9565b50826002908051906020019062000088929190620001b9565b5081600360006101000a81548173ffffffffffffffffffffffffffffffffffffffff021916908373ffffffffffffffffffffffffffffffffffffffff1602179055508060049080519060200190620000e2929190620001b9565b505050505062000567565b600033905090565b60008060009054906101000a900473ffffffffffffffffffffffffffffffffffffffff169050816000806101000a81548173ffffffffffffffffffffffffffffffffffffffff021916908373ffffffffffffffffffffffffffffffffffffffff1602179055508173ffffffffffffffffffffffffffffffffffffffff168173ffffffffffffffffffffffffffffffffffffffff167f8be0079c531659141344cd1fd0a4f28419497f9722a3daafe3b4186f6b6457e060405160405180910390a35050565b828054620001c79062000472565b90600052602060002090601f016020900481019282620001eb576000855562000237565b82601f106200020657805160ff191683800117855562000237565b8280016001018555821562000237579182015b828111156200023657825182559160200191906001019062000219565b5b5090506200024691906200024a565b5090565b5b80821115620002655760008160009055506001016200024b565b5090565b6000620002806200027a84620003d2565b620003a9565b9050828152602081018484840111156200029957600080fd5b620002a68482856200043c565b509392505050565b600081519050620002bf816200054d565b92915050565b600082601f830112620002d757600080fd5b8151620002e984826020860162000269565b91505092915050565b600080600080608085870312156200030957600080fd5b600085015167ffffffffffffffff8111156200032457600080fd5b6200033287828801620002c5565b945050602085015167ffffffffffffffff8111156200035057600080fd5b6200035e87828801620002c5565b93505060406200037187828801620002ae565b925050606085015167ffffffffffffffff8111156200038f57600080fd5b6200039d87828801620002c5565b91505092959194509250565b6000620003b5620003c8565b9050620003c38282620004a8565b919050565b6000604051905090565b600067ffffffffffffffff821115620003f057620003ef6200050d565b5b620003fb826200053c565b9050602081019050919050565b600062000415826200041c565b9050919050565b600073ffffffffffffffffffffffffffffffffffffffff82169050919050565b60005b838110156200045c5780820151818401526020810190506200043f565b838111156200046c576000848401525b50505050565b600060028204905060018216806200048b57607f821691505b60208210811415620004a257620004a1620004de565b5b50919050565b620004b3826200053c565b810181811067ffffffffffffffff82111715620004d557620004d46200050d565b5b80604052505050565b7f4e487b7100000000000000000000000000000000000000000000000000000000600052602260045260246000fd5b7f4e487b7100000000000000000000000000000000000000000000000000000000600052604160045260246000fd5b6000601f19601f8301169050919050565b620005588162000408565b81146200056457600080fd5b50565b61145380620005776000396000f3fe608060405234801561001057600080fd5b50600436106100cf5760003560e01c80639eab52531161008c578063ca00c70211610066578063ca00c702146101ee578063ce0fabd81461020c578063db8ddcc91461022a578063f2fde38b14610246576100cf565b80639eab525314610184578063aaf2e5d8146101a2578063b7e03bec146101d2576100cf565b80630555ff41146100d457806317d7de7c146101045780636f4d469b14610122578063715018a61461013e578063893d20e8146101485780638da5cb5b14610166575b600080fd5b6100ee60048036038101906100e99190610c9e565b610262565b6040516100fb9190610f15565b60405180910390f35b61010c610282565b6040516101199190610f30565b60405180910390f35b61013c60048036038101906101379190610cc7565b610314565b005b61014661051f565b005b610150610533565b60405161015d9190610ed8565b60405180910390f35b61016e61055d565b60405161017b9190610ed8565b60405180910390f35b61018c610586565b6040516101999190610ef3565b60405180910390f35b6101bc60048036038101906101b79190610c9e565b610614565b6040516101c99190610f15565b60405180910390f35b6101ec60048036038101906101e79190610d0c565b6106e5565b005b6101f66106ff565b6040516102039190610f30565b60405180910390f35b610214610791565b6040516102219190610f30565b60405180910390f35b610244600480360381019061023f9190610c9e565b61081b565b005b610260600480360381019061025b9190610c9e565b610966565b005b60056020528060005260406000206000915054906101000a900460ff1681565b6060600180546102919061117d565b80601f01602080910402602001604051908101604052809291908181526020018280546102bd9061117d565b801561030a5780601f106102df5761010080835404028352916020019161030a565b820191906000526020600020905b8154815290600101906020018083116102ed57829003601f168201915b5050505050905090565b600360009054906101000a900473ffffffffffffffffffffffffffffffffffffffff1673ffffffffffffffffffffffffffffffffffffffff163373ffffffffffffffffffffffffffffffffffffffff16146103a4576040517f08c379a000000000000000000000000000000000000000000000000000000000815260040161039b90610f72565b60405180910390fd5b60005b8282905081101561051a576000600560008585858181106103f1577f4e487b7100000000000000000000000000000000000000000000000000000000600052603260045260246000fd5b90506020020160208101906104069190610c9e565b73ffffffffffffffffffffffffffffffffffffffff1673ffffffffffffffffffffffffffffffffffffffff16815260200190815260200160002060006101000a81548160ff0219169083151502179055506006838383818110610492577f4e487b7100000000000000000000000000000000000000000000000000000000600052603260045260246000fd5b90506020020160208101906104a79190610c9e565b9080600181540180825580915050600190039060005260206000200160009091909190916101000a81548173ffffffffffffffffffffffffffffffffffffffff021916908373ffffffffffffffffffffffffffffffffffffffff1602179055508080610512906111e0565b9150506103a7565b505050565b6105276109ea565b6105316000610a68565b565b6000600360009054906101000a900473ffffffffffffffffffffffffffffffffffffffff16905090565b60008060009054906101000a900473ffffffffffffffffffffffffffffffffffffffff16905090565b6060600680548060200260200160405190810160405280929190818152602001828054801561060a57602002820191906000526020600020905b8160009054906101000a900473ffffffffffffffffffffffffffffffffffffffff1673ffffffffffffffffffffffffffffffffffffffff16815260200190600101908083116105c0575b5050505050905090565b6000806000905060005b6006805490508110156106db578373ffffffffffffffffffffffffffffffffffffffff166006828154811061067c577f4e487b7100000000000000000000000000000000000000000000000000000000600052603260045260246000fd5b9060005260206000200160009054906101000a900473ffffffffffffffffffffffffffffffffffffffff1673ffffffffffffffffffffffffffffffffffffffff1614156106c857600191505b80806106d3906111e0565b91505061061e565b5080915050919050565b80600290805190602001906106fb929190610b34565b5050565b60606002805461070e9061117d565b80601f016020809104026020016040519081016040528092919081815260200182805461073a9061117d565b80156107875780601f1061075c57610100808354040283529160200191610787565b820191906000526020600020905b81548152906001019060200180831161076a57829003601f168201915b5050505050905090565b606060068054905060075414156107df576040518060400160405280600681526020017f5369676e656400000000000000000000000000000000000000000000000000008152509050610818565b6040518060400160405280600881526020017f556e7369676e656400000000000000000000000000000000000000000000000081525090505b90565b600061082682610614565b905080610868576040517f08c379a000000000000000000000000000000000000000000000000000000000815260040161085f90610f92565b60405180910390fd5b600560008373ffffffffffffffffffffffffffffffffffffffff1673ffffffffffffffffffffffffffffffffffffffff16815260200190815260200160002060009054906101000a900460ff16156108f5576040517f08c379a00000000000000000000000000000000000000000000000000000000081526004016108ec90610fd2565b60405180910390fd5b6001600560008473ffffffffffffffffffffffffffffffffffffffff1673ffffffffffffffffffffffffffffffffffffffff16815260200190815260200160002060006101000a81548160ff021916908315150217905550600160075461095c919061109d565b6007819055505050565b61096e6109ea565b600073ffffffffffffffffffffffffffffffffffffffff168173ffffffffffffffffffffffffffffffffffffffff1614156109de576040517f08c379a00000000000000000000000000000000000000000000000000000000081526004016109d590610f52565b60405180910390fd5b6109e781610a68565b50565b6109f2610b2c565b73ffffffffffffffffffffffffffffffffffffffff16610a1061055d565b73ffffffffffffffffffffffffffffffffffffffff1614610a66576040517f08c379a0000000000000000000000000000000000000000000000000000000008152600401610a5d90610fb2565b60405180910390fd5b565b60008060009054906101000a900473ffffffffffffffffffffffffffffffffffffffff169050816000806101000a81548173ffffffffffffffffffffffffffffffffffffffff021916908373ffffffffffffffffffffffffffffffffffffffff1602179055508173ffffffffffffffffffffffffffffffffffffffff168173ffffffffffffffffffffffffffffffffffffffff167f8be0079c531659141344cd1fd0a4f28419497f9722a3daafe3b4186f6b6457e060405160405180910390a35050565b600033905090565b828054610b409061117d565b90600052602060002090601f016020900481019282610b625760008555610ba9565b82601f10610b7b57805160ff1916838001178555610ba9565b82800160010185558215610ba9579182015b82811115610ba8578251825591602001919060010190610b8d565b5b509050610bb69190610bba565b5090565b5b80821115610bd3576000816000905550600101610bbb565b5090565b6000610bea610be584611017565b610ff2565b905082815260208101848484011115610c0257600080fd5b610c0d84828561113b565b509392505050565b600081359050610c2481611406565b92915050565b60008083601f840112610c3c57600080fd5b8235905067ffffffffffffffff811115610c5557600080fd5b602083019150836020820283011115610c6d57600080fd5b9250929050565b600082601f830112610c8557600080fd5b8135610c95848260208601610bd7565b91505092915050565b600060208284031215610cb057600080fd5b6000610cbe84828501610c15565b91505092915050565b60008060208385031215610cda57600080fd5b600083013567ffffffffffffffff811115610cf457600080fd5b610d0085828601610c2a565b92509250509250929050565b600060208284031215610d1e57600080fd5b600082013567ffffffffffffffff811115610d3857600080fd5b610d4484828501610c74565b91505092915050565b6000610d598383610d65565b60208301905092915050565b610d6e816110f3565b82525050565b610d7d816110f3565b82525050565b6000610d8e82611058565b610d98818561107b565b9350610da383611048565b8060005b83811015610dd4578151610dbb8882610d4d565b9750610dc68361106e565b925050600181019050610da7565b5085935050505092915050565b610dea81611105565b82525050565b6000610dfb82611063565b610e05818561108c565b9350610e1581856020860161114a565b610e1e816112b6565b840191505092915050565b6000610e3660268361108c565b9150610e41826112c7565b604082019050919050565b6000610e59601a8361108c565b9150610e6482611316565b602082019050919050565b6000610e7c60248361108c565b9150610e878261133f565b604082019050919050565b6000610e9f60208361108c565b9150610eaa8261138e565b602082019050919050565b6000610ec260218361108c565b9150610ecd826113b7565b604082019050919050565b6000602082019050610eed6000830184610d74565b92915050565b60006020820190508181036000830152610f0d8184610d83565b905092915050565b6000602082019050610f2a6000830184610de1565b92915050565b60006020820190508181036000830152610f4a8184610df0565b905092915050565b60006020820190508181036000830152610f6b81610e29565b9050919050565b60006020820190508181036000830152610f8b81610e4c565b9050919050565b60006020820190508181036000830152610fab81610e6f565b9050919050565b60006020820190508181036000830152610fcb81610e92565b9050919050565b60006020820190508181036000830152610feb81610eb5565b9050919050565b6000610ffc61100d565b905061100882826111af565b919050565b6000604051905090565b600067ffffffffffffffff82111561103257611031611287565b5b61103b826112b6565b9050602081019050919050565b6000819050602082019050919050565b600081519050919050565b600081519050919050565b6000602082019050919050565b600082825260208201905092915050565b600082825260208201905092915050565b60006110a882611131565b91506110b383611131565b9250827fffffffffffffffffffffffffffffffffffffffffffffffffffffffffffffffff038211156110e8576110e7611229565b5b828201905092915050565b60006110fe82611111565b9050919050565b60008115159050919050565b600073ffffffffffffffffffffffffffffffffffffffff82169050919050565b6000819050919050565b82818337600083830152505050565b60005b8381101561116857808201518184015260208101905061114d565b83811115611177576000848401525b50505050565b6000600282049050600182168061119557607f821691505b602082108114156111a9576111a8611258565b5b50919050565b6111b8826112b6565b810181811067ffffffffffffffff821117156111d7576111d6611287565b5b80604052505050565b60006111eb82611131565b91507fffffffffffffffffffffffffffffffffffffffffffffffffffffffffffffffff82141561121e5761121d611229565b5b600182019050919050565b7f4e487b7100000000000000000000000000000000000000000000000000000000600052601160045260246000fd5b7f4e487b7100000000000000000000000000000000000000000000000000000000600052602260045260246000fd5b7f4e487b7100000000000000000000000000000000000000000000000000000000600052604160045260246000fd5b6000601f19601f8301169050919050565b7f4f776e61626c653a206e6577206f776e657220697320746865207a65726f206160008201527f6464726573730000000000000000000000000000000000000000000000000000602082015250565b7f4f6e6c79206f776e65722063616e20616464206d656d62657273000000000000600082015250565b7f596f7520617265206e6f74206d656d626572206f66207468697320616772656560008201527f6d656e7400000000000000000000000000000000000000000000000000000000602082015250565b7f4f776e61626c653a2063616c6c6572206973206e6f7420746865206f776e6572600082015250565b7f596f75206861766520616c7265616479207369676e65642061677265656d656e60008201527f7400000000000000000000000000000000000000000000000000000000000000602082015250565b61140f816110f3565b811461141a57600080fd5b5056fea2646970667358221220be4e37e1e49340400215b88e5c6e9c6345be6db25931cc5dac34c7efdafcf7da64736f6c63430008040033a26469706673582212204ca2c504e5bd6a20a7054720db5a2309a0f7c806a4c6dae83841298b22cee76f64736f6c63430008040033",
  "linkReferences": {},
  "deployedLinkReferences": {}
}